:04000000803118280B
:1000080080310B1D0A280B11F80AF70A2000111C71
:1000180011281110960180309700911E0900911245
:10002800230019089A000900880180311B28203014
:10003800F701F80184000030850020308231C922A0
:10004800803120003328473013218031F400E0301C
:10005800F4057408F0000830CC218031E4286320CE
:1000680080319320803154208031F801203078028B
:10007800031C3A285C208031AC208031C1208031BB
:100088008F173B218031003A03194D28F70154207E
:1000980080310F307702031C45285C2080314528C9
:1000A800C030250091000C30930020001C1508007A
:1000B8002500930120001C1122000E1108002700C2
:1000C800940195019601250093019A010F302400AF
:1000D8008D009001950196019701220096019701E4
:1000E80002309D00063021009500970199019D017D
:1000F8009E019101920120009101920196018030A8
:1001080097008D309800990101309C00FF309B00CA
:100118008B170B178B16210011149116080023005A
:100128008C018D018E018F019001C63021008C0059
:100138001F308D00A3308E0001308F0008309000F2
:1001480001302000B721803101302200B72108009A
:1001580081308F0508009B30F0004030F101F10735
:10016800E4208031FF30F0003F30F100E42080319E
:100178006C30F0004130F100E42807218031F501AE
:1001880075357D3E84008230C0218031E420803185
:100198000930F50A7502031CC428F5017535013EBE
:1001A80084008230C0218031E42080313530F50A66
:1001B8007502031CD22802218031AF208031272804
:1001C800C621803110300E168E110C10F2008E11DF
:1001D800F11FF0280E16F1280E128E15F035F10DCC
:1001E800F20BEB288E110E16000000000000000034
:1001F80000000000000022000C140800FF30F0008E
:100208004230F100E428473013218031F400E03017
:10021800F4057408F0000230CC218031E428F200A3
:10022800803E242180319B21F30000000000000063
:10023800000000000000000022000C1473080800F1
:10024800F0008D1621000E12220008300E168E11B5
:100258000C10F1008E11F01F33290E1634290E12DE
:100268008E15F035F10B2E298E110E160800200080
:100278008C1C0034F6017608203E86008701672131
:10028800803181001530F60A7602031C3F290221CD
:1002980080319021F6017608B33E82310A0081311F
:1002A800F5007608203E86008701010875060E30A5
:1002B800031D6329F60A7602031C4F290E307602C5
:1002C80003180134003422000C148D128E110E16FE
:1002D80021000E160830F10022008E11F0358E151F
:1002E80020000E1E792970147A290000F10B70295C
:1002F80022008E1100000000000000000000000035
:100308000000C6210E1600000000000000000000DA
:100318000000000070080800443013218031F40008
:10032800F0000430F101F0074430F13DE428F00119
:100338000C1021000E160830F10022008E11F03545
:10034800000022008E1520000E1EAC297014AD2965
:100358000000F10BA12922008E1121000E122200AB
:100368000E16700808008C0020308D0050308E006A
:100378008F010430900008008500003FF000013F25
:10038800F100080022008D1621000E12220008003C
:0A039800F101F0074730F13D0800C5
:100400000034633405349A34063480340734C634F7
:1004100008345334093401340A3400340B34623460
:100420000C342E340D3400340E3410340F34743444
:100430001034F03412340034133426341434943429
:10044000153400341634D43417342D341834AA3407
:10045000193400341A3438341B3401341C34013458
:100460001D3455341E3421341F3407342034803475
:100470002134053422340034233419342434003434
:1004800025340034263400342734AC342834533433
:100490002A34D4342B3440342C3449342D34FF34B2
:1004A0002E341D342F341234303400343134FA34C5
:1004B0003334003434340034353440343634C034CA
:1004C0003734003438340034393420343A34073483
:1004D0003C3400343D345234003418340134733425
:1004E00002340934033404340434283411345634C7
:1004F00029348E343234EB343B34723400342134BA
:1005000001349B3402347F3403340634043414340D
:1005100011345634293490343234EB343B34923431
:10052000003442340134FD340234A63403340C3434
:1005300004340F341134AE3429348E343234CA3496
:100540003B3492340034463401349B3402347F34DB
:100550000334063404340F341134AE342934903467
:100560003234CA343B3448346F34703465345234D6
:1005700046342034523446344D34203443344F34DE
:100580004234523446344D343234313439345334B5
:0E0590000034640080010131890BCA2A003456
:020000040001F9
:04000E0002C9FFDF45
:00000001FF
